{
  "contractName": "FRADocumentVerification",
  "abi": [
    {
      "inputs": [],
      "stateMutability": "nonpayable",
      "type": "constructor"
    },
    {
      "anonymous": false,
      "inputs": [
        {
          "indexed": true,
          "internalType": "bytes32",
          "name": "docHash",
          "type": "bytes32"
        },
        {
          "indexed": false,
          "internalType": "string",
          "name": "ipfsHash",
          "type": "string"
        },
        {
          "indexed": false,
          "internalType": "address",
          "name": "uploader",
          "type": "address"
        }
      ],
      "name": "DocumentStored",
      "type": "event"
    },
    {
      "anonymous": false,
      "inputs": [
        {
          "indexed": true,
          "internalType": "bytes32",
          "name": "docHash",
          "type": "bytes32"
        },
        {
          "indexed": false,
          "internalType": "bool",
          "name": "isVerified",
          "type": "bool"
        }
      ],
      "name": "DocumentVerified",
      "type": "event"
    },
    {
      "anonymous": false,
      "inputs": [
        {
          "indexed": true,
          "internalType": "address",
          "name": "uploader",
          "type": "address"
        }
      ],
      "name": "UploaderAuthorized",
      "type": "event"
    },
    {
      "inputs": [],
      "name": "admin",
      "outputs": [
        {
          "internalType": "address",
          "name": "",
          "type": "address"
        }
      ],
      "stateMutability": "view",
      "type": "function",
      "constant": true
    },
    {
      "inputs": [
        {
          "internalType": "address",
          "name": "",
          "type": "address"
        }
      ],
      "name": "authorizedUploaders",
      "outputs": [
        {
          "internalType": "bool",
          "name": "",
          "type": "bool"
        }
      ],
      "stateMutability": "view",
      "type": "function",
      "constant": true
    },
    {
      "inputs": [
        {
          "internalType": "bytes32",
          "name": "",
          "type": "bytes32"
        }
      ],
      "name": "documents",
      "outputs": [
        {
          "internalType": "string",
          "name": "ipfsHash",
          "type": "string"
        },
        {
          "internalType": "string",
          "name": "documentType",
          "type": "string"
        },
        {
          "internalType": "address",
          "name": "uploader",
          "type": "address"
        },
        {
          "internalType": "uint256",
          "name": "timestamp",
          "type": "uint256"
        },
        {
          "internalType": "bool",
          "name": "isVerified",
          "type": "bool"
        },
        {
          "internalType": "bool",
          "name": "exists",
          "type": "bool"
        }
      ],
      "stateMutability": "view",
      "type": "function",
      "constant": true
    },
    {
      "inputs": [
        {
          "internalType": "bytes32",
          "name": "docHash",
          "type": "bytes32"
        },
        {
          "internalType": "string",
          "name": "ipfsHash",
          "type": "string"
        },
        {
          "internalType": "string",
          "name": "docType",
          "type": "string"
        }
      ],
      "name": "storeDocument",
      "outputs": [],
      "stateMutability": "nonpayable",
      "type": "function"
    },
    {
      "inputs": [
        {
          "internalType": "bytes32",
          "name": "docHash",
          "type": "bytes32"
        }
      ],
      "name": "verifyDocument",
      "outputs": [
        {
          "internalType": "bool",
          "name": "",
          "type": "bool"
        }
      ],
      "stateMutability": "view",
      "type": "function",
      "constant": true
    },
    {
      "inputs": [
        {
          "internalType": "bytes32",
          "name": "docHash",
          "type": "bytes32"
        }
      ],
      "name": "getDocumentDetails",
      "outputs": [
        {
          "components": [
            {
              "internalType": "string",
              "name": "ipfsHash",
              "type": "string"
            },
            {
              "internalType": "string",
              "name": "documentType",
              "type": "string"
            },
            {
              "internalType": "address",
              "name": "uploader",
              "type": "address"
            },
            {
              "internalType": "uint256",
              "name": "timestamp",
              "type": "uint256"
            },
            {
              "internalType": "bool",
              "name": "isVerified",
              "type": "bool"
            },
            {
              "internalType": "bool",
              "name": "exists",
              "type": "bool"
            }
          ],
          "internalType": "struct FRADocumentVerification.Document",
          "name": "",
          "type": "tuple"
        }
      ],
      "stateMutability": "view",
      "type": "function",
      "constant": true
    },
    {
      "inputs": [
        {
          "internalType": "address",
          "name": "uploader",
          "type": "address"
        }
      ],
      "name": "authorizeUploader",
      "outputs": [],
      "stateMutability": "nonpayable",
      "type": "function"
    },
    {
      "inputs": [
        {
          "internalType": "address",
          "name": "uploader",
          "type": "address"
        }
      ],
      "name": "revokeUploader",
      "outputs": [],
      "stateMutability": "nonpayable",
      "type": "function"
    }
  ],
  "bytecode": "0x608060405234801561001057600080fd5b50600280546001600160a01b031916339081179091556000908152600160208190526040909120805460ff19169091179055610c2c806100516000396000f3fe608060405234801561001057600080fd5b50600436106100885760003560e01c80638e4d0f401161005b5780638e4d0f40146100f6578063cc7ac3b614610116578063f851a44014610149578063fe35089f1461017457600080fd5b80632b2805db1461008d5780634f5e033d146100bb5780637a50925f146100d05780638553139c146100e3575b600080fd5b6100a061009b3660046107d3565b610187565b6040516100b296959493929190610832565b60405180910390f35b6100ce6100c9366004610888565b6102dd565b005b6100ce6100de366004610888565b61035f565b6100ce6100f136600461095b565b6103aa565b6101096101043660046107d3565b61057f565b6040516100b291906109c8565b610139610124366004610888565b60016020526000908152604090205460ff1681565b60405190151581526020016100b2565b60025461015c906001600160a01b031681565b6040516001600160a01b0390911681526020016100b2565b6101396101823660046107d3565b610796565b6000602081905290815260409020805481906101a290610a42565b80601f01602080910402602001604051908101604052809291908181526020018280546101ce90610a42565b801561021b5780601f106101f05761010080835404028352916020019161021b565b820191906000526020600020905b8154815290600101906020018083116101fe57829003601f168201915b50505050509080600101805461023090610a42565b80601f016020809104026020016040519081016040528092919081815260200182805461025c90610a42565b80156102a95780601f1061027e576101008083540402835291602001916102a9565b820191906000526020600020905b81548152906001019060200180831161028c57829003601f168201915b505050506002830154600384015460049094015492936001600160a01b039091169290915060ff8082169161010090041686565b6002546001600160a01b031633146103105760405162461bcd60e51b815260040161030790610a7c565b60405180910390fd5b6001600160a01b0381166000818152600160208190526040808320805460ff1916909217909155517f2016fab8880ad8e1ac4fb8e3d8d8f0406f1a8d2615b6d0d9f82e5f97ac1d36fe9190a250565b6002546001600160a01b031633146103895760405162461bcd60e51b815260040161030790610a7c565b6001600160a01b03166000908152600160205260409020805460ff19169055565b3360009081526001602052604090205460ff166104145760405162461bcd60e51b815260206004820152602260248201527f4e6f7420617574686f72697a656420746f2075706c6f616420646f63756d656e604482015261747360f01b6064820152608401610307565b600083815260208190526040902060040154610100900460ff161561047b5760405162461bcd60e51b815260206004820152601760248201527f446f63756d656e7420616c7265616479206578697374730000000000000000006044820152606401610307565b6040805160c0810182528381526020808201849052338284015242606083015260016080830181905260a083015260008681529081905291909120815181906104c49082610b0c565b50602082015160018201906104d99082610b0c565b506040828101516002830180546001600160a01b0319166001600160a01b039092169190911790556060830151600383015560808301516004909201805460a09094015161ffff1990941692151561ff00191692909217610100931515939093029290921790555183907feeaae8c23e9c75b418f143d67706bd277d16c37875428dc92c6c5c0482b7fd46906105729085903390610bcc565b60405180910390a2505050565b6040805160c081018252606080825260208201819052600092820183905281018290526080810182905260a0810191909152600082815260208190526040902060040154610100900460ff166106175760405162461bcd60e51b815260206004820152601760248201527f446f63756d656e7420646f6573206e6f742065786973740000000000000000006044820152606401610307565b60008281526020819052604090819020815160c0810190925280548290829061063f90610a42565b80601f016020809104026020016040519081016040528092919081815260200182805461066b90610a42565b80156106b85780601f1061068d576101008083540402835291602001916106b8565b820191906000526020600020905b81548152906001019060200180831161069b57829003601f168201915b505050505081526020016001820180546106d190610a42565b80601f01602080910402602001604051908101604052809291908181526020018280546106fd90610a42565b801561074a5780601f1061071f5761010080835404028352916020019161074a565b820191906000526020600020905b81548152906001019060200180831161072d57829003601f168201915b505050918352505060028201546001600160a01b031660208201526003820154604082015260049091015460ff8082161515606084015261010090910416151560809091015292915050565b600081815260208190526040812060040154610100900460ff1680156107cd575060008281526020819052604090206004015460ff165b92915050565b6000602082840312156107e557600080fd5b5035919050565b6000815180845260005b81811015610812576020818501810151868301820152016107f6565b506000602082860101526020601f19601f83011685010191505092915050565b60c08152600061084560c08301896107ec565b828103602084015261085781896107ec565b6001600160a01b03979097166040840152505060608101939093529015156080830152151560a09091015292915050565b60006020828403121561089a57600080fd5b81356001600160a01b03811681146108b157600080fd5b9392505050565b634e487b7160e01b600052604160045260246000fd5b600082601f8301126108df57600080fd5b813567ffffffffffffffff808211156108fa576108fa6108b8565b604051601f8301601f19908116603f01168101908282118183101715610922576109226108b8565b8160405283815286602085880101111561093b57600080fd5b836020870160208301376000602085830101528094505050505092915050565b60008060006060848603121561097057600080fd5b83359250602084013567ffffffffffffffff8082111561098f57600080fd5b61099b878388016108ce565b935060408601359150808211156109b157600080fd5b506109be868287016108ce565b9150509250925092565b602081526000825160c060208401526109e460e08401826107ec565b90506020840151601f19848303016040850152610a0182826107ec565b91505060018060a01b036040850151166060840152606084015160808401526080840151151560a084015260a0840151151560c08401528091505092915050565b600181811c90821680610a5657607f821691505b602082108103610a7657634e487b7160e01b600052602260045260246000fd5b50919050565b60208082526021908201527f4f6e6c792061646d696e2063616e2063616c6c20746869732066756e6374696f6040820152603760f91b606082015260800190565b601f821115610b0757600081815260208120601f850160051c81016020861015610ae45750805b601f850160051c820191505b81811015610b0357828155600101610af0565b5050505b505050565b815167ffffffffffffffff811115610b2657610b266108b8565b610b3a81610b348454610a42565b84610abd565b602080601f831160018114610b6f5760008415610b575750858301515b600019600386901b1c1916600185901b178555610b03565b600085815260208120601f198616915b82811015610b9e57888601518255948401946001909101908401610b7f565b5085821015610bbc5787850151600019600388901b60f8161c191681555b5050505050600190811b01905550565b604081526000610bdf60408301856107ec565b905060018060a01b0383166020830152939250505056fea26469706673582212203ff0b17af9d826dcbc4c67c3d3aa03c8fbee505399a39ffb76b2d338057ece7064736f6c63430008130033",
  "immutableReferences": {},
  "source": "// SPDX-License-Identifier: MIT\r\npragma solidity ^0.8.19;\r\n\r\ncontract FRADocumentVerification {\r\n    struct Document {\r\n        string ipfsHash;\r\n        string documentType;\r\n        address uploader;\r\n        uint256 timestamp;\r\n        bool isVerified;\r\n        bool exists;\r\n    }\r\n    \r\n    mapping(bytes32 => Document) public documents;\r\n    mapping(address => bool) public authorizedUploaders;\r\n    address public admin;\r\n    \r\n    event DocumentStored(bytes32 indexed docHash, string ipfsHash, address uploader);\r\n    event DocumentVerified(bytes32 indexed docHash, bool isVerified);\r\n    event UploaderAuthorized(address indexed uploader);\r\n    \r\n    constructor() {\r\n        admin = msg.sender;\r\n        authorizedUploaders[admin] = true;\r\n    }\r\n    \r\n    modifier onlyAdmin() {\r\n        require(msg.sender == admin, \"Only admin can call this function\");\r\n        _;\r\n    }\r\n    \r\n    modifier onlyAuthorized() {\r\n        require(authorizedUploaders[msg.sender], \"Not authorized to upload documents\");\r\n        _;\r\n    }\r\n    \r\n    function storeDocument(\r\n        bytes32 docHash, \r\n        string memory ipfsHash, \r\n        string memory docType\r\n    ) public onlyAuthorized {\r\n        require(!documents[docHash].exists, \"Document already exists\");\r\n        \r\n        documents[docHash] = Document({\r\n            ipfsHash: ipfsHash,\r\n            documentType: docType,\r\n            uploader: msg.sender,\r\n            timestamp: block.timestamp,\r\n            isVerified: true,\r\n            exists: true\r\n        });\r\n        \r\n        emit DocumentStored(docHash, ipfsHash, msg.sender);\r\n    }\r\n    \r\n    function verifyDocument(bytes32 docHash) public view returns (bool) {\r\n        return documents[docHash].exists && documents[docHash].isVerified;\r\n    }\r\n    \r\n    function getDocumentDetails(bytes32 docHash) public view returns (Document memory) {\r\n        require(documents[docHash].exists, \"Document does not exist\");\r\n        return documents[docHash];\r\n    }\r\n    \r\n    function authorizeUploader(address uploader) public onlyAdmin {\r\n        authorizedUploaders[uploader] = true;\r\n        emit UploaderAuthorized(uploader);\r\n    }\r\n    \r\n    function revokeUploader(address uploader) public onlyAdmin {\r\n        authorizedUploaders[uploader] = false;\r\n    }\r\n}\r\n",
  "sourcePath": "C:\\Users\\Kishore\\blockchain\\contracts\\FRADocumentVerification.sol",
  "compiler": {
    "name": "solc",
    "version": "0.8.19+commit.7dd6d404.Emscripten.clang"
  },
  "schemaVersion": "3.4.16",
  "updatedAt": "2025-09-13T10:33:57.268Z",
  "networkType": "ethereum",
  "devdoc": {
    "kind": "dev",
    "methods": {},
    "version": 1
  },
  "userdoc": {
    "kind": "user",
    "methods": {},
    "version": 1
  }
}